{
  "address": "0x815656DEEc7104A38168876B74416C191fEAaCc5",
  "abi": [
    {
      "inputs": [],
      "name": "getValFacet1",
      "outputs": [
        {
          "internalType": "uint256",
          "name": "",
          "type": "uint256"
        }
      ],
      "stateMutability": "view",
      "type": "function"
    },
    {
      "inputs": [
        {
          "internalType": "uint256",
          "name": "_val",
          "type": "uint256"
        }
      ],
      "name": "setValFacet1",
      "outputs": [],
      "stateMutability": "nonpayable",
      "type": "function"
    }
  ],
  "transactionHash": "0xc40eb9e6eda9b45e2de6d7066b054d567b2e7bc7606c7981c3716f63a54670ac",
  "args": [],
  "numDeployments": 1,
  "solcInputHash": "995a936f0096b1dace8f21b6c81ed728",
  "bytecode": "0x608060405234801561001057600080fd5b50610190806100206000396000f3fe608060405234801561001057600080fd5b50600436106100365760003560e01c80631ec1b03f1461003b5780634dd9cf2014610057575b600080fd5b61005560048036038101906100509190610103565b610075565b005b61005f610088565b60405161006c919061013f565b60405180910390f35b8061007e61009b565b6000018190555050565b600061009261009b565b60000154905090565b6000807f79a9f649d13dcae06d0ae815d62495e720eff6928ec33682ec67990c0209f31f90508091505090565b600080fd5b6000819050919050565b6100e0816100cd565b81146100eb57600080fd5b50565b6000813590506100fd816100d7565b92915050565b600060208284031215610119576101186100c8565b5b6000610127848285016100ee565b91505092915050565b610139816100cd565b82525050565b60006020820190506101546000830184610130565b9291505056fea2646970667358221220f0d7c0044b383df64d71f21bb19b4e5679b293f66ea67ea008563c3f0661d4f164736f6c63430008090033",
  "devdoc": {
    "kind": "dev",
    "methods": {},
    "version": 1
  },
  "userdoc": {
    "kind": "user",
    "methods": {},
    "version": 1
  },
  "storageLayout": {
    "storage": [],
    "types": null
  }
}