{
  "address": "0x16dD219C41090B1ac81C66Dbb74B45CfbD1CaB43",
  "abi": [
    {
      "inputs": [],
      "name": "getValFacet3",
      "outputs": [
        {
          "internalType": "uint256",
          "name": "",
          "type": "uint256"
        }
      ],
      "stateMutability": "view",
      "type": "function"
    },
    {
      "inputs": [],
      "name": "getValLibrary2Facet3",
      "outputs": [
        {
          "internalType": "uint256",
          "name": "",
          "type": "uint256"
        }
      ],
      "stateMutability": "view",
      "type": "function"
    },
    {
      "inputs": [],
      "name": "upgradedDiamond",
      "outputs": [
        {
          "internalType": "string",
          "name": "",
          "type": "string"
        }
      ],
      "stateMutability": "pure",
      "type": "function"
    }
  ],
  "transactionHash": "0xd3a6044b894bfc12ce6fe5d7fd44439233b0158adbac64263e92cfac62ab8f8d",
  "args": [],
  "numDeployments": 2,
  "solcInputHash": "30e72370228d3712bee35a2224b4364e",
  "bytecode": "0x608060405234801561001057600080fd5b50610282806100206000396000f3fe608060405234801561001057600080fd5b50600436106100415760003560e01c8063056df79414610046578063c91702d214610064578063d4c49f8614610082575b600080fd5b61004e6100a0565b60405161005b91906101f6565b60405180910390f35b61006c6100dd565b6040516100799190610231565b60405180910390f35b61008a6100f0565b6040516100979190610231565b60405180910390f35b60606040518060400160405280600881526020017f5570677261646564000000000000000000000000000000000000000000000000815250905090565b60006100e7610103565b60000154905090565b60006100fa610130565b60000154905090565b6000807f9c3b359eecd172b1259b12f960c4dcfd63c300785c408f82b119ca2f9d4cd61f90508091505090565b6000807f79a9f649d13dcae06d0ae815d62495e720eff6928ec33682ec67990c0209f31f90508091505090565b600081519050919050565b600082825260208201905092915050565b60005b8381101561019757808201518184015260208101905061017c565b838111156101a6576000848401525b50505050565b6000601f19601f8301169050919050565b60006101c88261015d565b6101d28185610168565b93506101e2818560208601610179565b6101eb816101ac565b840191505092915050565b6000602082019050818103600083015261021081846101bd565b905092915050565b6000819050919050565b61022b81610218565b82525050565b60006020820190506102466000830184610222565b9291505056fea26469706673582212206066361055428bda91bfb45a63c54eb223934ce653ab14691c270e645330f70064736f6c63430008090033",
  "devdoc": {
    "kind": "dev",
    "methods": {},
    "version": 1
  },
  "userdoc": {
    "kind": "user",
    "methods": {},
    "version": 1
  },
  "storageLayout": {
    "storage": [],
    "types": null
  }
}