{
  "address": "0x16ca94D06ECe67e539Afb5101EA77CF0Ba9d7a8E",
  "abi": [
    {
      "inputs": [],
      "name": "getValFacet2",
      "outputs": [
        {
          "internalType": "uint256",
          "name": "",
          "type": "uint256"
        }
      ],
      "stateMutability": "view",
      "type": "function"
    },
    {
      "inputs": [
        {
          "internalType": "uint256",
          "name": "_val",
          "type": "uint256"
        }
      ],
      "name": "setValFacet2",
      "outputs": [],
      "stateMutability": "nonpayable",
      "type": "function"
    }
  ],
  "transactionHash": "0xe134d13819c6d206e6d01b0477e3d924300ce7a536f9e7d019f40a3625d96065",
  "args": [],
  "numDeployments": 1,
  "solcInputHash": "995a936f0096b1dace8f21b6c81ed728",
  "bytecode": "0x608060405234801561001057600080fd5b50610190806100206000396000f3fe608060405234801561001057600080fd5b50600436106100365760003560e01c80632f91e7931461003b578063fe65cb3d14610059575b600080fd5b610043610075565b60405161005091906100e1565b60405180910390f35b610073600480360381019061006e919061012d565b610088565b005b600061007f61009b565b60000154905090565b8061009161009b565b6000018190555050565b6000807f79a9f649d13dcae06d0ae815d62495e720eff6928ec33682ec67990c0209f31f90508091505090565b6000819050919050565b6100db816100c8565b82525050565b60006020820190506100f660008301846100d2565b92915050565b600080fd5b61010a816100c8565b811461011557600080fd5b50565b60008135905061012781610101565b92915050565b600060208284031215610143576101426100fc565b5b600061015184828501610118565b9150509291505056fea264697066735822122025f0953d90247498705c1c19e352f463812ff598569be1ead6a6eded77910dfc64736f6c63430008090033",
  "devdoc": {
    "kind": "dev",
    "methods": {},
    "version": 1
  },
  "userdoc": {
    "kind": "user",
    "methods": {},
    "version": 1
  },
  "storageLayout": {
    "storage": [],
    "types": null
  }
}